{
  "contractName": "Certification",
  "abi": [
    {
      "inputs": [],
      "stateMutability": "nonpayable",
      "type": "constructor"
    },
    {
      "inputs": [
        {
          "internalType": "address",
          "name": "",
          "type": "address"
        }
      ],
      "name": "authorizedAddresses",
      "outputs": [
        {
          "internalType": "bool",
          "name": "",
          "type": "bool"
        }
      ],
      "stateMutability": "view",
      "type": "function",
      "constant": true
    },
    {
      "inputs": [
        {
          "internalType": "string",
          "name": "",
          "type": "string"
        }
      ],
      "name": "certificates",
      "outputs": [
        {
          "internalType": "string",
          "name": "name",
          "type": "string"
        },
        {
          "internalType": "string",
          "name": "email",
          "type": "string"
        },
        {
          "internalType": "string",
          "name": "organization",
          "type": "string"
        },
        {
          "internalType": "uint256",
          "name": "marks",
          "type": "uint256"
        },
        {
          "internalType": "uint256",
          "name": "passingMarks",
          "type": "uint256"
        },
        {
          "internalType": "string",
          "name": "courseName",
          "type": "string"
        },
        {
          "internalType": "string",
          "name": "dateOfCompletion",
          "type": "string"
        },
        {
          "internalType": "string",
          "name": "issuerOrganization",
          "type": "string"
        },
        {
          "internalType": "string",
          "name": "instructorId",
          "type": "string"
        },
        {
          "internalType": "string",
          "name": "instructorName",
          "type": "string"
        }
      ],
      "stateMutability": "view",
      "type": "function",
      "constant": true
    },
    {
      "inputs": [
        {
          "internalType": "string",
          "name": "",
          "type": "string"
        }
      ],
      "name": "instructors",
      "outputs": [
        {
          "internalType": "string",
          "name": "",
          "type": "string"
        }
      ],
      "stateMutability": "view",
      "type": "function",
      "constant": true
    },
    {
      "inputs": [
        {
          "internalType": "string",
          "name": "_id",
          "type": "string"
        },
        {
          "internalType": "string",
          "name": "_name",
          "type": "string"
        }
      ],
      "name": "addInstructor",
      "outputs": [],
      "stateMutability": "nonpayable",
      "type": "function"
    },
    {
      "inputs": [
        {
          "internalType": "address",
          "name": "_address",
          "type": "address"
        }
      ],
      "name": "addAuthorizedAddress",
      "outputs": [],
      "stateMutability": "nonpayable",
      "type": "function"
    },
    {
      "inputs": [
        {
          "internalType": "string",
          "name": "_name",
          "type": "string"
        },
        {
          "internalType": "string",
          "name": "_email",
          "type": "string"
        },
        {
          "internalType": "string",
          "name": "_organization",
          "type": "string"
        },
        {
          "internalType": "uint256",
          "name": "_marks",
          "type": "uint256"
        },
        {
          "internalType": "uint256",
          "name": "_passingMarks",
          "type": "uint256"
        },
        {
          "internalType": "string",
          "name": "_courseName",
          "type": "string"
        },
        {
          "internalType": "string",
          "name": "_dateOfCom",
          "type": "string"
        },
        {
          "internalType": "string",
          "name": "_issuerOrganization",
          "type": "string"
        },
        {
          "internalType": "string",
          "name": "_instructorId",
          "type": "string"
        },
        {
          "internalType": "string",
          "name": "instructorName",
          "type": "string"
        },
        {
          "internalType": "string",
          "name": "certificateHash",
          "type": "string"
        }
      ],
      "name": "verifyCertificate",
      "outputs": [],
      "stateMutability": "nonpayable",
      "type": "function"
    },
    {
      "inputs": [
        {
          "internalType": "string",
          "name": "hash",
          "type": "string"
        }
      ],
      "name": "checkCertificate",
      "outputs": [
        {
          "components": [
            {
              "internalType": "string",
              "name": "name",
              "type": "string"
            },
            {
              "internalType": "string",
              "name": "email",
              "type": "string"
            },
            {
              "internalType": "string",
              "name": "organization",
              "type": "string"
            },
            {
              "internalType": "uint256",
              "name": "marks",
              "type": "uint256"
            },
            {
              "internalType": "uint256",
              "name": "passingMarks",
              "type": "uint256"
            },
            {
              "internalType": "string",
              "name": "courseName",
              "type": "string"
            },
            {
              "internalType": "string",
              "name": "dateOfCompletion",
              "type": "string"
            },
            {
              "internalType": "string",
              "name": "issuerOrganization",
              "type": "string"
            },
            {
              "internalType": "string",
              "name": "instructorId",
              "type": "string"
            },
            {
              "internalType": "string",
              "name": "instructorName",
              "type": "string"
            }
          ],
          "internalType": "struct Certification.Certificate",
          "name": "",
          "type": "tuple"
        }
      ],
      "stateMutability": "view",
      "type": "function",
      "constant": true
    }
  ],
  "bytecode": "0x60806040523480156200001157600080fd5b506200008e6040518060400160405280600981526020017f3230424b543030313900000000000000000000000000000000000000000000008152506040518060400160405280600681526020017f42617261746800000000000000000000000000000000000000000000000000008152506200020c60201b60201c565b6200010a6040518060400160405280600981526020017f3230424b543030303400000000000000000000000000000000000000000000008152506040518060400160405280600581526020017f56696a61790000000000000000000000000000000000000000000000000000008152506200020c60201b60201c565b620001866040518060400160405280600981526020017f3230424b543030303800000000000000000000000000000000000000000000008152506040518060400160405280600881526020017f507265657468616e0000000000000000000000000000000000000000000000008152506200020c60201b60201c565b62000197336200024060201b60201c565b620001bc73a0cd7a4628a516a7381c81e9a6d1d51b41e96bd56200024060201b60201c565b620001e1732725def9e111b1512cb86147d6e290f0445de8096200024060201b60201c565b6200020673750153b3490938f612dc47e4cf6f41e9a76259d66200024060201b60201c565b62000682565b806000836040516200021f919062000313565b908152602001604051809103902090816200023b91906200059b565b505050565b60018060008373ffffffffffffffffffffffffffffffffffffffff1673ffffffffffffffffffffffffffffffffffffffff16815260200190815260200160002060006101000a81548160ff02191690831515021790555050565b600081519050919050565b600081905092915050565b60005b83811015620002d0578082015181840152602081019050620002b3565b60008484015250505050565b6000620002e9826200029a565b620002f58185620002a5565b935062000307818560208601620002b0565b80840191505092915050565b6000620003218284620002dc565b915081905092915050565b7f4e487b7100000000000000000000000000000000000000000000000000000000600052604160045260246000fd5b7f4e487b7100000000000000000000000000000000000000000000000000000000600052602260045260246000fd5b60006002820490506001821680620003a357607f821691505b602082108103620003b957620003b86200035b565b5b50919050565b60008190508160005260206000209050919050565b60006020601f8301049050919050565b600082821b905092915050565b600060088302620004237fffffffffffffffffffffffffffffffffffffffffffffffffffffffffffffffff82620003e4565b6200042f8683620003e4565b95508019841693508086168417925050509392505050565b6000819050919050565b6000819050919050565b60006200047c62000476620004708462000447565b62000451565b62000447565b9050919050565b6000819050919050565b62000498836200045b565b620004b0620004a78262000483565b848454620003f1565b825550505050565b600090565b620004c7620004b8565b620004d48184846200048d565b505050565b5b81811015620004fc57620004f0600082620004bd565b600181019050620004da565b5050565b601f8211156200054b576200051581620003bf565b6200052084620003d4565b8101602085101562000530578190505b620005486200053f85620003d4565b830182620004d9565b50505b505050565b600082821c905092915050565b6000620005706000198460080262000550565b1980831691505092915050565b60006200058b83836200055d565b9150826002028217905092915050565b620005a6826200029a565b67ffffffffffffffff811115620005c257620005c16200032c565b5b620005ce82546200038a565b620005db82828562000500565b600060209050601f831160018114620006135760008415620005fe578287015190505b6200060a85826200057d565b8655506200067a565b601f1984166200062386620003bf565b60005b828110156200064d5784890151825560018201915060208501945060208101905062000626565b868310156200066d578489015162000669601f8916826200055d565b8355505b6001600288020188555050505b505050505050565b611db080620006926000396000f3fe608060405234801561001057600080fd5b506004361061007d5760003560e01c8063e647bca31161005b578063e647bca3146100f3578063f19e207e1461010f578063f46f29e81461013f578063ffbd4dd51461016f5761007d565b806342f1181e1461008257806342fb293a1461009e5780638f2b91ea146100ba575b600080fd5b61009c600480360381019061009791906110ab565b61019f565b005b6100b860048036038101906100b39190611254565b6101f9565b005b6100d460048036038101906100cf9190611444565b610559565b6040516100ea9a9998979695949392919061151b565b60405180910390f35b61010d600480360381019061010891906115ef565b610a03565b005b610129600480360381019061012491906110ab565b610a33565b6040516101369190611682565b60405180910390f35b61015960048036038101906101549190611444565b610a53565b604051610166919061169d565b60405180910390f35b61018960048036038101906101849190611444565b610b09565b6040516101969190611823565b60405180910390f35b60018060008373ffffffffffffffffffffffffffffffffffffffff1673ffffffffffffffffffffffffffffffffffffffff16815260200190815260200160002060006101000a81548160ff02191690831515021790555050565b600160003373ffffffffffffffffffffffffffffffffffffffff1673ffffffffffffffffffffffffffffffffffffffff16815260200190815260200160002060009054906101000a900460ff16610285576040517f08c379a000000000000000000000000000000000000000000000000000000000815260040161027c90611891565b60405180910390fd5b8160405160200161029691906118ed565b604051602081830303815290604052805190602001206000846040516102bc91906118ed565b90815260200160405180910390206040516020016102da91906119fc565b6040516020818303038152906040528051906020012014610330576040517f08c379a000000000000000000000000000000000000000000000000000000000815260040161032790611a5f565b60405180910390fd5b86881015610373576040517f08c379a000000000000000000000000000000000000000000000000000000000815260040161036a90611af1565b60405180910390fd5b60006040518061014001604052808d81526020018c81526020018b81526020018a81526020018981526020018881526020018781526020018681526020018581526020016000866040516103c791906118ed565b908152602001604051809103902080546103e090611933565b80601f016020809104026020016040519081016040528092919081815260200182805461040c90611933565b80156104595780601f1061042e57610100808354040283529160200191610459565b820191906000526020600020905b81548152906001019060200180831161043c57829003601f168201915b505050505081525090508060028360405161047491906118ed565b908152602001604051809103902060008201518160000190816104979190611ca8565b5060208201518160010190816104ad9190611ca8565b5060408201518160020190816104c39190611ca8565b50606082015181600301556080820151816004015560a08201518160050190816104ed9190611ca8565b5060c08201518160060190816105039190611ca8565b5060e08201518160070190816105199190611ca8565b506101008201518160080190816105309190611ca8565b506101208201518160090190816105479190611ca8565b50905050505050505050505050505050565b60028180516020810182018051848252602083016020850120818352809550505050505060009150905080600001805461059290611933565b80601f01602080910402602001604051908101604052809291908181526020018280546105be90611933565b801561060b5780601f106105e05761010080835404028352916020019161060b565b820191906000526020600020905b8154815290600101906020018083116105ee57829003601f168201915b50505050509080600101805461062090611933565b80601f016020809104026020016040519081016040528092919081815260200182805461064c90611933565b80156106995780601f1061066e57610100808354040283529160200191610699565b820191906000526020600020905b81548152906001019060200180831161067c57829003601f168201915b5050505050908060020180546106ae90611933565b80601f01602080910402602001604051908101604052809291908181526020018280546106da90611933565b80156107275780601f106106fc57610100808354040283529160200191610727565b820191906000526020600020905b81548152906001019060200180831161070a57829003601f168201915b50505050509080600301549080600401549080600501805461074890611933565b80601f016020809104026020016040519081016040528092919081815260200182805461077490611933565b80156107c15780601f10610796576101008083540402835291602001916107c1565b820191906000526020600020905b8154815290600101906020018083116107a457829003601f168201915b5050505050908060060180546107d690611933565b80601f016020809104026020016040519081016040528092919081815260200182805461080290611933565b801561084f5780601f106108245761010080835404028352916020019161084f565b820191906000526020600020905b81548152906001019060200180831161083257829003601f168201915b50505050509080600701805461086490611933565b80601f016020809104026020016040519081016040528092919081815260200182805461089090611933565b80156108dd5780601f106108b2576101008083540402835291602001916108dd565b820191906000526020600020905b8154815290600101906020018083116108c057829003601f168201915b5050505050908060080180546108f290611933565b80601f016020809104026020016040519081016040528092919081815260200182805461091e90611933565b801561096b5780601f106109405761010080835404028352916020019161096b565b820191906000526020600020905b81548152906001019060200180831161094e57829003601f168201915b50505050509080600901805461098090611933565b80601f01602080910402602001604051908101604052809291908181526020018280546109ac90611933565b80156109f95780601f106109ce576101008083540402835291602001916109f9565b820191906000526020600020905b8154815290600101906020018083116109dc57829003601f168201915b505050505090508a565b80600083604051610a1491906118ed565b90815260200160405180910390209081610a2e9190611ca8565b505050565b60016020528060005260406000206000915054906101000a900460ff1681565b6000818051602081018201805184825260208301602085012081835280955050505050506000915090508054610a8890611933565b80601f0160208091040260200160405190810160405280929190818152602001828054610ab490611933565b8015610b015780601f10610ad657610100808354040283529160200191610b01565b820191906000526020600020905b815481529060010190602001808311610ae457829003601f168201915b505050505081565b610b11610fe6565b600282604051610b2191906118ed565b908152602001604051809103902060405180610140016040529081600082018054610b4b90611933565b80601f0160208091040260200160405190810160405280929190818152602001828054610b7790611933565b8015610bc45780601f10610b9957610100808354040283529160200191610bc4565b820191906000526020600020905b815481529060010190602001808311610ba757829003601f168201915b50505050508152602001600182018054610bdd90611933565b80601f0160208091040260200160405190810160405280929190818152602001828054610c0990611933565b8015610c565780601f10610c2b57610100808354040283529160200191610c56565b820191906000526020600020905b815481529060010190602001808311610c3957829003601f168201915b50505050508152602001600282018054610c6f90611933565b80601f0160208091040260200160405190810160405280929190818152602001828054610c9b90611933565b8015610ce85780601f10610cbd57610100808354040283529160200191610ce8565b820191906000526020600020905b815481529060010190602001808311610ccb57829003601f168201915b505050505081526020016003820154815260200160048201548152602001600582018054610d1590611933565b80601f0160208091040260200160405190810160405280929190818152602001828054610d4190611933565b8015610d8e5780601f10610d6357610100808354040283529160200191610d8e565b820191906000526020600020905b815481529060010190602001808311610d7157829003601f168201915b50505050508152602001600682018054610da790611933565b80601f0160208091040260200160405190810160405280929190818152602001828054610dd390611933565b8015610e205780601f10610df557610100808354040283529160200191610e20565b820191906000526020600020905b815481529060010190602001808311610e0357829003601f168201915b50505050508152602001600782018054610e3990611933565b80601f0160208091040260200160405190810160405280929190818152602001828054610e6590611933565b8015610eb25780601f10610e8757610100808354040283529160200191610eb2565b820191906000526020600020905b815481529060010190602001808311610e9557829003601f168201915b50505050508152602001600882018054610ecb90611933565b80601f0160208091040260200160405190810160405280929190818152602001828054610ef790611933565b8015610f445780601f10610f1957610100808354040283529160200191610f44565b820191906000526020600020905b815481529060010190602001808311610f2757829003601f168201915b50505050508152602001600982018054610f5d90611933565b80601f0160208091040260200160405190810160405280929190818152602001828054610f8990611933565b8015610fd65780601f10610fab57610100808354040283529160200191610fd6565b820191906000526020600020905b815481529060010190602001808311610fb957829003601f168201915b5050505050815250509050919050565b604051806101400160405280606081526020016060815260200160608152602001600081526020016000815260200160608152602001606081526020016060815260200160608152602001606081525090565b6000604051905090565b600080fd5b600080fd5b600073ffffffffffffffffffffffffffffffffffffffff82169050919050565b60006110788261104d565b9050919050565b6110888161106d565b811461109357600080fd5b50565b6000813590506110a58161107f565b92915050565b6000602082840312156110c1576110c0611043565b5b60006110cf84828501611096565b91505092915050565b600080fd5b600080fd5b6000601f19601f8301169050919050565b7f4e487b7100000000000000000000000000000000000000000000000000000000600052604160045260246000fd5b61112b826110e2565b810181811067ffffffffffffffff8211171561114a576111496110f3565b5b80604052505050565b600061115d611039565b90506111698282611122565b919050565b600067ffffffffffffffff821115611189576111886110f3565b5b611192826110e2565b9050602081019050919050565b82818337600083830152505050565b60006111c16111bc8461116e565b611153565b9050828152602081018484840111156111dd576111dc6110dd565b5b6111e884828561119f565b509392505050565b600082601f830112611205576112046110d8565b5b81356112158482602086016111ae565b91505092915050565b6000819050919050565b6112318161121e565b811461123c57600080fd5b50565b60008135905061124e81611228565b92915050565b60008060008060008060008060008060006101608c8e03121561127a57611279611043565b5b60008c013567ffffffffffffffff81111561129857611297611048565b5b6112a48e828f016111f0565b9b505060208c013567ffffffffffffffff8111156112c5576112c4611048565b5b6112d18e828f016111f0565b9a505060408c013567ffffffffffffffff8111156112f2576112f1611048565b5b6112fe8e828f016111f0565b995050606061130f8e828f0161123f565b98505060806113208e828f0161123f565b97505060a08c013567ffffffffffffffff81111561134157611340611048565b5b61134d8e828f016111f0565b96505060c08c013567ffffffffffffffff81111561136e5761136d611048565b5b61137a8e828f016111f0565b95505060e08c013567ffffffffffffffff81111561139b5761139a611048565b5b6113a78e828f016111f0565b9450506101008c013567ffffffffffffffff8111156113c9576113c8611048565b5b6113d58e828f016111f0565b9350506101208c013567ffffffffffffffff8111156113f7576113f6611048565b5b6114038e828f016111f0565b9250506101408c013567ffffffffffffffff81111561142557611424611048565b5b6114318e828f016111f0565b9150509295989b509295989b9093969950565b60006020828403121561145a57611459611043565b5b600082013567ffffffffffffffff81111561147857611477611048565b5b611484848285016111f0565b91505092915050565b600081519050919050565b600082825260208201905092915050565b60005b838110156114c75780820151818401526020810190506114ac565b60008484015250505050565b60006114de8261148d565b6114e88185611498565b93506114f88185602086016114a9565b611501816110e2565b840191505092915050565b6115158161121e565b82525050565b6000610140820190508181036000830152611536818d6114d3565b9050818103602083015261154a818c6114d3565b9050818103604083015261155e818b6114d3565b905061156d606083018a61150c565b61157a608083018961150c565b81810360a083015261158c81886114d3565b905081810360c08301526115a081876114d3565b905081810360e08301526115b481866114d3565b90508181036101008301526115c981856114d3565b90508181036101208301526115de81846114d3565b90509b9a5050505050505050505050565b6000806040838503121561160657611605611043565b5b600083013567ffffffffffffffff81111561162457611623611048565b5b611630858286016111f0565b925050602083013567ffffffffffffffff81111561165157611650611048565b5b61165d858286016111f0565b9150509250929050565b60008115159050919050565b61167c81611667565b82525050565b60006020820190506116976000830184611673565b92915050565b600060208201905081810360008301526116b781846114d3565b905092915050565b600082825260208201905092915050565b60006116db8261148d565b6116e581856116bf565b93506116f58185602086016114a9565b6116fe816110e2565b840191505092915050565b6117128161121e565b82525050565b600061014083016000830151848203600086015261173682826116d0565b9150506020830151848203602086015261175082826116d0565b9150506040830151848203604086015261176a82826116d0565b915050606083015161177f6060860182611709565b5060808301516117926080860182611709565b5060a083015184820360a08601526117aa82826116d0565b91505060c083015184820360c08601526117c482826116d0565b91505060e083015184820360e08601526117de82826116d0565b9150506101008301518482036101008601526117fa82826116d0565b91505061012083015184820361012086015261181682826116d0565b9150508091505092915050565b6000602082019050818103600083015261183d8184611718565b905092915050565b7f556e617574686f72697a656420496e7374727563746f72000000000000000000600082015250565b600061187b601783611498565b915061188682611845565b602082019050919050565b600060208201905081810360008301526118aa8161186e565b9050919050565b600081905092915050565b60006118c78261148d565b6118d181856118b1565b93506118e18185602086016114a9565b80840191505092915050565b60006118f982846118bc565b915081905092915050565b7f4e487b7100000000000000000000000000000000000000000000000000000000600052602260045260246000fd5b6000600282049050600182168061194b57607f821691505b60208210810361195e5761195d611904565b5b50919050565b60008190508160005260206000209050919050565b6000815461198681611933565b61199081866118b1565b945060018216600081146119ab57600181146119c0576119f3565b60ff19831686528115158202860193506119f3565b6119c985611964565b60005b838110156119eb578154818901526001820191506020810190506119cc565b838801955050505b50505092915050565b6000611a088284611979565b915081905092915050565b7f496e76616c696420496e7374727563746f720000000000000000000000000000600082015250565b6000611a49601283611498565b9150611a5482611a13565b602082019050919050565b60006020820190508181036000830152611a7881611a3c565b9050919050565b7f4d61726b73206f627461696e6564206973206c657373207468616e207061737360008201527f696e67206d61726b730000000000000000000000000000000000000000000000602082015250565b6000611adb602983611498565b9150611ae682611a7f565b604082019050919050565b60006020820190508181036000830152611b0a81611ace565b9050919050565b60006020601f8301049050919050565b600082821b905092915050565b600060088302611b5e7fffffffffffffffffffffffffffffffffffffffffffffffffffffffffffffffff82611b21565b611b688683611b21565b95508019841693508086168417925050509392505050565b6000819050919050565b6000611ba5611ba0611b9b8461121e565b611b80565b61121e565b9050919050565b6000819050919050565b611bbf83611b8a565b611bd3611bcb82611bac565b848454611b2e565b825550505050565b600090565b611be8611bdb565b611bf3818484611bb6565b505050565b5b81811015611c1757611c0c600082611be0565b600181019050611bf9565b5050565b601f821115611c5c57611c2d81611964565b611c3684611b11565b81016020851015611c45578190505b611c59611c5185611b11565b830182611bf8565b50505b505050565b600082821c905092915050565b6000611c7f60001984600802611c61565b1980831691505092915050565b6000611c988383611c6e565b9150826002028217905092915050565b611cb18261148d565b67ffffffffffffffff811115611cca57611cc96110f3565b5b611cd48254611933565b611cdf828285611c1b565b600060209050601f831160018114611d125760008415611d00578287015190505b611d0a8582611c8c565b865550611d72565b601f198416611d2086611964565b60005b82811015611d4857848901518255600182019150602085019450602081019050611d23565b86831015611d655784890151611d61601f891682611c6e565b8355505b6001600288020188555050505b50505050505056fea264697066735822122071aa4dbded531966b56d5ad04ef9a98b432c26b1e085b2d81e6c0fe6c03e653b64736f6c63430008130033",
  "immutableReferences": {},
  "source": "// SPDX-License-Identifier: MIT\r\npragma solidity ^0.8.0;\r\n\r\ncontract Certification {\r\n// structure to store certificate details\r\nstruct Certificate {\r\n    string name;\r\n    string email;\r\n    string organization;\r\n    uint marks;\r\n    uint passingMarks;\r\n    string courseName;\r\n    string dateOfCompletion;\r\n    string issuerOrganization;\r\n    string instructorId;\r\n    string instructorName;\r\n    \r\n}\r\n    \r\n// mapping to store instructor details\r\nmapping(string => string) public instructors;\r\n\r\n// mapping to store authorized addresses\r\nmapping(address => bool) public authorizedAddresses;\r\n\r\n// mapping to store certificates\r\nmapping(string => Certificate) public certificates;\r\n\r\n// function to add instructor to the mapping\r\nfunction addInstructor(string memory _id, string memory _name) public {\r\n    instructors[_id] = _name;\r\n}\r\n\r\n// function to add authorized addresses\r\nfunction addAuthorizedAddress(address _address) public {\r\n    authorizedAddresses[_address] = true;\r\n}\r\nconstructor() {\r\n        // initialize instructors mapping with dummy data\r\n        addInstructor(\"20BKT0019\", \"Barath\");\r\n        addInstructor(\"20BKT0004\", \"Vijay\");\r\n        addInstructor(\"20BKT0008\", \"Preethan\");\r\n        \r\n        // initialize authorizedAddresses mapping with first 3 ganache accounts\r\n         addAuthorizedAddress(msg.sender);\r\n        addAuthorizedAddress(0xa0cd7a4628a516a7381C81E9A6d1d51b41E96bD5);\r\n        addAuthorizedAddress(0x2725Def9e111b1512Cb86147d6e290F0445de809);\r\n        addAuthorizedAddress(0x750153B3490938f612dC47e4Cf6f41E9a76259D6);\r\n    }\r\n// function to verify certificate and add it to the blockchain\r\nfunction verifyCertificate(string memory _name, \r\n                            string memory _email,\r\n                           string memory _organization,\r\n                           uint _marks, \r\n                           uint _passingMarks, \r\n                           string memory _courseName, \r\n                           string memory _dateOfCom, \r\n                           string memory _issuerOrganization, \r\n                           string memory  _instructorId,\r\n                           string memory instructorName,\r\n                           string memory certificateHash) public {\r\n    \r\n    // check if the instructor is authorized\r\n    if(!authorizedAddresses[msg.sender]){\r\n       revert(\"Unauthorized Instructor\");}\r\n    \r\n    // check if the instructor id is valid\r\n    if(keccak256(abi.encodePacked(instructors[_instructorId])) != keccak256(abi.encodePacked(instructorName)))\r\n{   revert(\"Invalid Instructor\");}\r\n\r\n    \r\n    // check if the marks obtained is greater than or equal to passing marks\r\n    if(_marks <  _passingMarks)\r\n{     revert(\"Marks obtained is less than passing marks\");}\r\n    \r\n    // create a new certificate\r\n    Certificate memory certificate = Certificate({\r\n        name: _name,\r\n        email : _email,\r\n        organization: _organization,\r\n        marks: _marks,\r\n        passingMarks: _passingMarks,\r\n        courseName: _courseName,\r\n        dateOfCompletion: _dateOfCom,\r\n        issuerOrganization: _issuerOrganization,\r\n        instructorId: _instructorId,\r\n        instructorName: instructors[_instructorId]\r\n    });\r\n    \r\n    // add the certificate to the blockchain\r\n    certificates[certificateHash] = certificate;\r\n}\r\n\r\nfunction checkCertificate(string memory hash) public view returns(Certificate memory){\r\n   return certificates[hash];\r\n   }\r\n}",
  "sourcePath": "C:\\Users\\U VIJAY NIKHIL\\Downloads\\ddba_proj\\blog-app\\contracts\\Certification.sol",
  "compiler": {
    "name": "solc",
    "version": "0.8.19+commit.7dd6d404.Emscripten.clang"
  },
  "schemaVersion": "3.4.13",
  "updatedAt": "2023-04-02T05:22:27.346Z",
  "networkType": "ethereum",
  "devdoc": {
    "kind": "dev",
    "methods": {},
    "version": 1
  },
  "userdoc": {
    "kind": "user",
    "methods": {},
    "version": 1
  }
}